:100000000C9402010C9424010C9424010C942401FE
:100010000C9424010C9424010C9424010C942401CC
:100020000C9424010C9424010C9424010C942401BC
:100030000C9424010C9424010C9424010C942401AC
:100040000C9424010C9424010C9424010C9424019C
:100050000C9424010C9424010C9424010C94C701E9
:100060000C9424010C9424010C9424010C9424017C
:100070000C9424010C9424010C9424010C9424016C
:100080000C9424010C9424010C9424010C9424015C
:100090000C9424010C9424010C9424010C9424014C
:1000A0000C9424010C9424010C9424010C9424013C
:1000B0000C9424010C9424010C9424010C9424012C
:1000C0000C9424010C9424010C9424010C9424011C
:1000D0000C9424010C9424010C9424010C9424010C
:1000E0000C94240100002100240027002A002D0088
:1000F0003000330001010000040107010A01000083
:100100002200250028002B002E00310034000201BF
:100110000000050108010B0100002000230026005B
:1001200029002C002F00320000010000030106010D
:10013000090105050505070508080808020202026D
:100140000A0A080804040404010101010101010173
:100150000303030303030303040707070C0C0C0C3E
:100160000C0C0C0C02020202060606060606060627
:100170000B0B0B0B0B0B0B0B0102102020080810B4
:100180002040102040800201020108040201010207
:1001900004081020408080402010080402018004E0
:1001A000020180402010080402010804020101023B
:1001B0000408102040800102040810204080000044
:1001C000090A02080B0C0D070603040100000000D9
:1001D000000000000000000000000000000000001F
:1001E0000000000000000000000011100F000000DF
:1001F00000000000000000000000000000000000FF
:100200000000000011241FBECFEFD1E2DEBFCDBF42
:1002100000E00CBF12E0A0E0B2E0E4E2F9E000E0B0
:100220000BBF02C007900D92A230B107D9F71BBED9
:1002300012E0A2E0B2E001C01D92AF30B107E1F7D9
:100240000E94B8010C9490040C9400008091040268
:1002500090910502892B31F56091020270910302A1
:100260008AE00E94CA0280910202909103020196E4
:100270009093030280930202609100027091010248
:1002800089E00E94CA0280910002909101020197C8
:10029000909301028093000263E170E080E090E0BF
:1002A0000E940F028091040290910502892B99F41B
:1002B00080910202909103028F3F910561F4809139
:1002C000000290910102892B31F481E090E090933B
:1002D0000502809304028091040290910502019727
:1002E00031F560910202709103028AE00E94CA0215
:1002F00080910202909103020197909303028093F0
:100300000202609100027091010289E00E94CA021B
:1003100080910002909101020196909301028093D6
:10032000000263E170E080E090E00E940F028091A3
:10033000040290910502019789F480910202909144
:100340000302892B59F480910002909101028F3FA2
:10035000910521F4109205021092040208958AE09A
:1003600061E00E94AA0389E061E00E94AA03089567
:10037000CF93DF930E9468020E94AF01C0E0D0E0FB
:100380000E9426012097E1F30E940000F9CF1F92FE
:100390000F920FB60F9211242F933F938F939F9339
:1003A000AF93BF9380910A0290910B02A0910C022F
:1003B000B0910D0230910E020196A11DB11D232FA7
:1003C0002D5F2D3720F02D570196A11DB11D2093D3
:1003D0000E0280930A0290930B02A0930C02B0933A
:1003E0000D028091060290910702A0910802B0913F
:1003F00009020196A11DB11D809306029093070288
:10040000A0930802B0930902BF91AF919F918F9181
:100410003F912F910F900FBE0F901F9018959B0149
:10042000AC017FB7F8948091060290910702A091E9
:100430000802B091090266B5A89B05C06F3F19F08C
:100440000196A11DB11D7FBFBA2FA92F982F882714
:10045000860F911DA11DB11D62E0880F991FAA1F73
:10046000BB1F6A95D1F7BC012DC0FFB7F8948091EE
:10047000060290910702A0910802B0910902E6B528
:10048000A89B05C0EF3F19F00196A11DB11DFFBF4C
:10049000BA2FA92F982F88278E0F911DA11DB11D4E
:1004A000E2E0880F991FAA1FBB1FEA95D1F7861BB0
:1004B000970B885E9340C8F2215030404040504036
:1004C00068517C4F211531054105510571F608959C
:1004D000789484B5826084BD84B5816084BD85B51F
:1004E000826085BD85B5816085BDEEE6F0E08081E6
:1004F00081608083E1E8F0E0108280818260808307
:10050000808181608083E0E8F0E080818160808389
:10051000E1EBF0E0808184608083E0EBF0E08081BB
:1005200081608083E1E9F0E0808182608083808166
:1005300081608083E0E9F0E0808181608083E1EA8E
:10054000F0E0808182608083808181608083E0EA46
:10055000F0E0808181608083E1E2F1E0808182606F
:100560008083808181608083E0E2F1E0808181602E
:100570008083EAE7F0E0808184608083808182600C
:1005800080838081816080838081806880831092F5
:10059000C10008951F93CF93DF93182FEB0161E003
:1005A0000E94AA03209709F4CAC0CF3FD10509F4DD
:1005B000C9C0E12FF0E0E254FE4F8491893009F484
:1005C00066C08A30B0F48430F1F1853040F4823076
:1005D00059F1833070F5813009F0AEC020C087300A
:1005E00009F443C0883008F048C0863009F0A4C040
:1005F00034C08D3009F478C08E3038F48B3009F473
:100600005AC08C3008F066C04CC0803109F480C0FC
:10061000813109F487C08F3009F08EC06FC084B576
:10062000806884BDC7BD92C084B5806284BDC8BDEA
:100630008DC080918000806880938000D093890075
:10064000C093880083C08091800080628093800086
:10065000D0938B00C0938A0079C08091B0008068ED
:100660008093B000C093B30071C08091B0008062ED
:100670008093B000C093B40069C0809190008068FE
:1006800080939000D0939900C09398005FC08091B0
:100690009000806280939000D0939B00C0939A005A
:1006A00055C080919000886080939000D0939D0009
:1006B000C0939C004BC08091A00080688093A000F4
:1006C0008091A0008F7B8093A000D093A900C0935D
:1006D000A8003CC08091A00080628093A000D093CD
:1006E000AB00C093AA0032C08091A00088608093C4
:1006F000A000D093AD00C093AC0028C08091200131
:10070000806880932001D0932901C09328011EC0E6
:1007100080912001806280932001D0932B01C093AF
:100720002A0114C080912001886080932001D09319
:100730002D01C0932C010AC0C038D1051CF4812FB3
:1007400060E002C0812F61E00E945D04DF91CF91E3
:100750001F910895CF93DF93482F50E0CA01885826
:100760009E4FFC0134914E5C5E4FFA0184918823C8
:1007700069F190E0880F991FFC01EC51FF4FA591A2
:10078000B491FC01E250FF4FC591D491662351F41E
:100790002FB7F8948C91932F909589238C9388810F
:1007A00089230BC0623061F42FB7F8948C91932F9A
:1007B000909589238C938881832B88832FBF06C0D3
:1007C0009FB7F8948C91832B8C939FBFDF91CF912F
:1007D0000895893009F449C08A30A0F4843051F179
:1007E000853040F4823079F1833000F5813009F0B2
:1007F00063C026C0873079F1883098F5863009F0DB
:100800005BC025C08D3009F442C08E3028F48B3097
:10081000B1F18C30C0F52DC0803109F442C0813176
:1008200009F445C08F3009F047C037C0809180007F
:100830008F7703C0809180008F7D80938000089522
:1008400084B58F7702C084B58F7D84BD0895809173
:10085000B0008F7703C08091B0008F7D8093B0008F
:100860000895809190008F7707C0809190008F7DD0
:1008700003C080919000877F8093900008958091BD
:10088000A0008F7707C08091A0008F7D03C080916A
:10089000A000877F8093A0000895809120018F772A
:1008A00003C0809120018F7D809320010895809165
:1008B0002001877F809320010895FF920F931F935B
:1008C000F62E482F50E0CA0182549E4FFC0124911D
:1008D000CA0188589E4FFC0114914E5C5E4FFA018C
:1008E00004910023C9F0222319F0822F0E94E9030A
:1008F000E02FF0E0EE0FFF1FE250FF4FA591B49103
:100900009FB7F894FF2021F48C911095812302C0A9
:100910008C91812B8C939FBF1F910F91FF90089515
:04092000F894FFCF79
:02092400FF00D2
:00000001FF
